{
  "_format": "hh-sol-artifact-1",
  "contractName": "MyNFT",
  "sourceName": "contracts/MyNFT.sol",
  "abi": [
    {
      "inputs": [],
      "stateMutability": "nonpayable",
      "type": "constructor"
    },
    {
      "inputs": [
        {
          "internalType": "address",
          "name": "sender",
          "type": "address"
        },
        {
          "internalType": "uint256",
          "name": "tokenId",
          "type": "uint256"
        },
        {
          "internalType": "address",
          "name": "owner",
          "type": "address"
        }
      ],
      "name": "ERC721IncorrectOwner",
      "type": "error"
    },
    {
      "inputs": [
        {
          "internalType": "address",
          "name": "operator",
          "type": "address"
        },
        {
          "internalType": "uint256",
          "name": "tokenId",
          "type": "uint256"
        }
      ],
      "name": "ERC721InsufficientApproval",
      "type": "error"
    },
    {
      "inputs": [
        {
          "internalType": "address",
          "name": "approver",
          "type": "address"
        }
      ],
      "name": "ERC721InvalidApprover",
      "type": "error"
    },
    {
      "inputs": [
        {
          "internalType": "address",
          "name": "operator",
          "type": "address"
        }
      ],
      "name": "ERC721InvalidOperator",
      "type": "error"
    },
    {
      "inputs": [
        {
          "internalType": "address",
          "name": "owner",
          "type": "address"
        }
      ],
      "name": "ERC721InvalidOwner",
      "type": "error"
    },
    {
      "inputs": [
        {
          "internalType": "address",
          "name": "receiver",
          "type": "address"
        }
      ],
      "name": "ERC721InvalidReceiver",
      "type": "error"
    },
    {
      "inputs": [
        {
          "internalType": "address",
          "name": "sender",
          "type": "address"
        }
      ],
      "name": "ERC721InvalidSender",
      "type": "error"
    },
    {
      "inputs": [
        {
          "internalType": "uint256",
          "name": "tokenId",
          "type": "uint256"
        }
      ],
      "name": "ERC721NonexistentToken",
      "type": "error"
    },
    {
      "anonymous": false,
      "inputs": [
        {
          "indexed": true,
          "internalType": "address",
          "name": "owner",
          "type": "address"
        },
        {
          "indexed": true,
          "internalType": "address",
          "name": "approved",
          "type": "address"
        },
        {
          "indexed": true,
          "internalType": "uint256",
          "name": "tokenId",
          "type": "uint256"
        }
      ],
      "name": "Approval",
      "type": "event"
    },
    {
      "anonymous": false,
      "inputs": [
        {
          "indexed": true,
          "internalType": "address",
          "name": "owner",
          "type": "address"
        },
        {
          "indexed": true,
          "internalType": "address",
          "name": "operator",
          "type": "address"
        },
        {
          "indexed": false,
          "internalType": "bool",
          "name": "approved",
          "type": "bool"
        }
      ],
      "name": "ApprovalForAll",
      "type": "event"
    },
    {
      "anonymous": false,
      "inputs": [
        {
          "indexed": true,
          "internalType": "address",
          "name": "from",
          "type": "address"
        },
        {
          "indexed": true,
          "internalType": "address",
          "name": "to",
          "type": "address"
        },
        {
          "indexed": true,
          "internalType": "uint256",
          "name": "tokenId",
          "type": "uint256"
        }
      ],
      "name": "Transfer",
      "type": "event"
    },
    {
      "inputs": [],
      "name": "admin",
      "outputs": [
        {
          "internalType": "address",
          "name": "",
          "type": "address"
        }
      ],
      "stateMutability": "view",
      "type": "function"
    },
    {
      "inputs": [
        {
          "internalType": "address",
          "name": "to",
          "type": "address"
        },
        {
          "internalType": "uint256",
          "name": "tokenId",
          "type": "uint256"
        }
      ],
      "name": "approve",
      "outputs": [],
      "stateMutability": "nonpayable",
      "type": "function"
    },
    {
      "inputs": [
        {
          "internalType": "address",
          "name": "owner",
          "type": "address"
        }
      ],
      "name": "balanceOf",
      "outputs": [
        {
          "internalType": "uint256",
          "name": "",
          "type": "uint256"
        }
      ],
      "stateMutability": "view",
      "type": "function"
    },
    {
      "inputs": [
        {
          "internalType": "uint256",
          "name": "tokenId",
          "type": "uint256"
        }
      ],
      "name": "getApproved",
      "outputs": [
        {
          "internalType": "address",
          "name": "",
          "type": "address"
        }
      ],
      "stateMutability": "view",
      "type": "function"
    },
    {
      "inputs": [
        {
          "internalType": "address",
          "name": "owner",
          "type": "address"
        },
        {
          "internalType": "address",
          "name": "operator",
          "type": "address"
        }
      ],
      "name": "isApprovedForAll",
      "outputs": [
        {
          "internalType": "bool",
          "name": "",
          "type": "bool"
        }
      ],
      "stateMutability": "view",
      "type": "function"
    },
    {
      "inputs": [
        {
          "internalType": "address",
          "name": "to",
          "type": "address"
        }
      ],
      "name": "mint",
      "outputs": [],
      "stateMutability": "nonpayable",
      "type": "function"
    },
    {
      "inputs": [],
      "name": "name",
      "outputs": [
        {
          "internalType": "string",
          "name": "",
          "type": "string"
        }
      ],
      "stateMutability": "view",
      "type": "function"
    },
    {
      "inputs": [],
      "name": "nextTokenId",
      "outputs": [
        {
          "internalType": "uint256",
          "name": "",
          "type": "uint256"
        }
      ],
      "stateMutability": "view",
      "type": "function"
    },
    {
      "inputs": [
        {
          "internalType": "uint256",
          "name": "tokenId",
          "type": "uint256"
        }
      ],
      "name": "ownerOf",
      "outputs": [
        {
          "internalType": "address",
          "name": "",
          "type": "address"
        }
      ],
      "stateMutability": "view",
      "type": "function"
    },
    {
      "inputs": [
        {
          "internalType": "address",
          "name": "from",
          "type": "address"
        },
        {
          "internalType": "address",
          "name": "to",
          "type": "address"
        },
        {
          "internalType": "uint256",
          "name": "tokenId",
          "type": "uint256"
        }
      ],
      "name": "safeTransferFrom",
      "outputs": [],
      "stateMutability": "nonpayable",
      "type": "function"
    },
    {
      "inputs": [
        {
          "internalType": "address",
          "name": "from",
          "type": "address"
        },
        {
          "internalType": "address",
          "name": "to",
          "type": "address"
        },
        {
          "internalType": "uint256",
          "name": "tokenId",
          "type": "uint256"
        },
        {
          "internalType": "bytes",
          "name": "data",
          "type": "bytes"
        }
      ],
      "name": "safeTransferFrom",
      "outputs": [],
      "stateMutability": "nonpayable",
      "type": "function"
    },
    {
      "inputs": [
        {
          "internalType": "address",
          "name": "operator",
          "type": "address"
        },
        {
          "internalType": "bool",
          "name": "approved",
          "type": "bool"
        }
      ],
      "name": "setApprovalForAll",
      "outputs": [],
      "stateMutability": "nonpayable",
      "type": "function"
    },
    {
      "inputs": [
        {
          "internalType": "bytes4",
          "name": "interfaceId",
          "type": "bytes4"
        }
      ],
      "name": "supportsInterface",
      "outputs": [
        {
          "internalType": "bool",
          "name": "",
          "type": "bool"
        }
      ],
      "stateMutability": "view",
      "type": "function"
    },
    {
      "inputs": [],
      "name": "symbol",
      "outputs": [
        {
          "internalType": "string",
          "name": "",
          "type": "string"
        }
      ],
      "stateMutability": "view",
      "type": "function"
    },
    {
      "inputs": [
        {
          "internalType": "uint256",
          "name": "tokenId",
          "type": "uint256"
        }
      ],
      "name": "tokenURI",
      "outputs": [
        {
          "internalType": "string",
          "name": "",
          "type": "string"
        }
      ],
      "stateMutability": "view",
      "type": "function"
    },
    {
      "inputs": [
        {
          "internalType": "address",
          "name": "from",
          "type": "address"
        },
        {
          "internalType": "address",
          "name": "to",
          "type": "address"
        },
        {
          "internalType": "uint256",
          "name": "tokenId",
          "type": "uint256"
        }
      ],
      "name": "transferFrom",
      "outputs": [],
      "stateMutability": "nonpayable",
      "type": "function"
    }
  ],
  "bytecode": "0x608060405234801561001057600080fd5b506040518060400160405280600581526020017f4d794e46540000000000000000000000000000000000000000000000000000008152506040518060400160405280600481526020017f4d4e465400000000000000000000000000000000000000000000000000000000815250816000908161008c9190610335565b50806001908161009c9190610335565b50505033600760006101000a81548173ffffffffffffffffffffffffffffffffffffffff021916908373ffffffffffffffffffffffffffffffffffffffff160217905550610407565b600081519050919050565b7f4e487b7100000000000000000000000000000000000000000000000000000000600052604160045260246000fd5b7f4e487b7100000000000000000000000000000000000000000000000000000000600052602260045260246000fd5b6000600282049050600182168061016657607f821691505b6020821081036101795761017861011f565b5b50919050565b60008190508160005260206000209050919050565b60006020601f8301049050919050565b600082821b905092915050565b6000600883026101e17fffffffffffffffffffffffffffffffffffffffffffffffffffffffffffffffff826101a4565b6101eb86836101a4565b95508019841693508086168417925050509392505050565b6000819050919050565b6000819050919050565b600061023261022d61022884610203565b61020d565b610203565b9050919050565b6000819050919050565b61024c83610217565b61026061025882610239565b8484546101b1565b825550505050565b600090565b610275610268565b610280818484610243565b505050565b5b818110156102a45761029960008261026d565b600181019050610286565b5050565b601f8211156102e9576102ba8161017f565b6102c384610194565b810160208510156102d2578190505b6102e66102de85610194565b830182610285565b50505b505050565b600082821c905092915050565b600061030c600019846008026102ee565b1980831691505092915050565b600061032583836102fb565b9150826002028217905092915050565b61033e826100e5565b67ffffffffffffffff811115610357576103566100f0565b5b610361825461014e565b61036c8282856102a8565b600060209050601f83116001811461039f576000841561038d578287015190505b6103978582610319565b8655506103ff565b601f1984166103ad8661017f565b60005b828110156103d5578489015182556001820191506020850194506020810190506103b0565b868310156103f257848901516103ee601f8916826102fb565b8355505b6001600288020188555050505b505050505050565b612008806104166000396000f3fe608060405234801561001057600080fd5b50600436106101005760003560e01c806370a0823111610097578063b88d4fde11610066578063b88d4fde146102ab578063c87b56dd146102c7578063e985e9c5146102f7578063f851a4401461032757610100565b806370a082311461022357806375794a3c1461025357806395d89b4114610271578063a22cb4651461028f57610100565b806323b872dd116100d357806323b872dd1461019f57806342842e0e146101bb5780636352211e146101d75780636a6278421461020757610100565b806301ffc9a71461010557806306fdde0314610135578063081812fc14610153578063095ea7b314610183575b600080fd5b61011f600480360381019061011a919061176f565b610345565b60405161012c91906117b7565b60405180910390f35b61013d610427565b60405161014a9190611862565b60405180910390f35b61016d600480360381019061016891906118ba565b6104b9565b60405161017a9190611928565b60405180910390f35b61019d6004803603810190610198919061196f565b6104d5565b005b6101b960048036038101906101b491906119af565b6104eb565b005b6101d560048036038101906101d091906119af565b6105ed565b005b6101f160048036038101906101ec91906118ba565b61060d565b6040516101fe9190611928565b60405180910390f35b610221600480360381019061021c9190611a02565b61061f565b005b61023d60048036038101906102389190611a02565b6106d6565b60405161024a9190611a3e565b60405180910390f35b61025b610790565b6040516102689190611a3e565b60405180910390f35b610279610796565b6040516102869190611862565b60405180910390f35b6102a960048036038101906102a49190611a85565b610828565b005b6102c560048036038101906102c09190611bfa565b61083e565b005b6102e160048036038101906102dc91906118ba565b610863565b6040516102ee9190611862565b60405180910390f35b610311600480360381019061030c9190611c7d565b6108cc565b60405161031e91906117b7565b60405180910390f35b61032f610960565b60405161033c9190611928565b60405180910390f35b60007f80ac58cd000000000000000000000000000000000000000000000000000000007bffffffffffffffffffffffffffffffffffffffffffffffffffffffff1916827bffffffffffffffffffffffffffffffffffffffffffffffffffffffff1916148061041057507f5b5e139f000000000000000000000000000000000000000000000000000000007bffffffffffffffffffffffffffffffffffffffffffffffffffffffff1916827bffffffffffffffffffffffffffffffffffffffffffffffffffffffff1916145b80610420575061041f82610986565b5b9050919050565b60606000805461043690611cec565b80601f016020809104026020016040519081016040528092919081815260200182805461046290611cec565b80156104af5780601f10610484576101008083540402835291602001916104af565b820191906000526020600020905b81548152906001019060200180831161049257829003601f168201915b5050505050905090565b60006104c4826109f0565b506104ce82610a78565b9050919050565b6104e782826104e2610ab5565b610abd565b5050565b600073ffffffffffffffffffffffffffffffffffffffff168273ffffffffffffffffffffffffffffffffffffffff160361055d5760006040517f64a0ae920000000000000000000000000000000000000000000000000000000081526004016105549190611928565b60405180910390fd5b6000610571838361056c610ab5565b610acf565b90508373ffffffffffffffffffffffffffffffffffffffff168173ffffffffffffffffffffffffffffffffffffffff16146105e7578382826040517f64283d7b0000000000000000000000000000000000000000000000000000000081526004016105de93929190611d1d565b60405180910390fd5b50505050565b6106088383836040518060200160405280600081525061083e565b505050565b6000610618826109f0565b9050919050565b600760009054906101000a900473ffffffffffffffffffffffffffffffffffffffff1673ffffffffffffffffffffffffffffffffffffffff163373ffffffffffffffffffffffffffffffffffffffff16146106af576040517f08c379a00000000000000000000000000000000000000000000000000000000081526004016106a690611da0565b60405180910390fd5b6106bb81600654610ce9565b600660008154809291906106ce90611def565b919050555050565b60008073ffffffffffffffffffffffffffffffffffffffff168273ffffffffffffffffffffffffffffffffffffffff16036107495760006040517f89c62b640000000000000000000000000000000000000000000000000000000081526004016107409190611928565b60405180910390fd5b600360008373ffffffffffffffffffffffffffffffffffffffff1673ffffffffffffffffffffffffffffffffffffffff168152602001908152602001600020549050919050565b60065481565b6060600180546107a590611cec565b80601f01602080910402602001604051908101604052809291908181526020018280546107d190611cec565b801561081e5780601f106107f35761010080835404028352916020019161081e565b820191906000526020600020905b81548152906001019060200180831161080157829003601f168201915b5050505050905090565b61083a610833610ab5565b8383610d07565b5050565b6108498484846104eb565b61085d610854610ab5565b85858585610e76565b50505050565b606061086e826109f0565b506000610879611027565b9050600081511161089957604051806020016040528060008152506108c4565b806108a38461103e565b6040516020016108b4929190611e73565b6040516020818303038152906040525b915050919050565b6000600560008473ffffffffffffffffffffffffffffffffffffffff1673ffffffffffffffffffffffffffffffffffffffff16815260200190815260200160002060008373ffffffffffffffffffffffffffffffffffffffff1673ffffffffffffffffffffffffffffffffffffffff16815260200190815260200160002060009054906101000a900460ff16905092915050565b600760009054906101000a900473ffffffffffffffffffffffffffffffffffffffff1681565b60007f01ffc9a7000000000000000000000000000000000000000000000000000000007bffffffffffffffffffffffffffffffffffffffffffffffffffffffff1916827bffffffffffffffffffffffffffffffffffffffffffffffffffffffff1916149050919050565b6000806109fc8361110c565b9050600073ffffffffffffffffffffffffffffffffffffffff168173ffffffffffffffffffffffffffffffffffffffff1603610a6f57826040517f7e273289000000000000000000000000000000000000000000000000000000008152600401610a669190611a3e565b60405180910390fd5b80915050919050565b60006004600083815260200190815260200160002060009054906101000a900473ffffffffffffffffffffffffffffffffffffffff169050919050565b600033905090565b610aca8383836001611149565b505050565b600080610adb8461110c565b9050600073ffffffffffffffffffffffffffffffffffffffff168373ffffffffffffffffffffffffffffffffffffffff1614610b1d57610b1c81848661130e565b5b600073ffffffffffffffffffffffffffffffffffffffff168173ffffffffffffffffffffffffffffffffffffffff1614610bae57610b5f600085600080611149565b6001600360008373ffffffffffffffffffffffffffffffffffffffff1673ffffffffffffffffffffffffffffffffffffffff168152602001908152602001600020600082825403925050819055505b600073ffffffffffffffffffffffffffffffffffffffff168573ffffffffffffffffffffffffffffffffffffffff1614610c31576001600360008773ffffffffffffffffffffffffffffffffffffffff1673ffffffffffffffffffffffffffffffffffffffff168152602001908152602001600020600082825401925050819055505b846002600086815260200190815260200160002060006101000a81548173ffffffffffffffffffffffffffffffffffffffff021916908373ffffffffffffffffffffffffffffffffffffffff160217905550838573ffffffffffffffffffffffffffffffffffffffff168273ffffffffffffffffffffffffffffffffffffffff167fddf252ad1be2c89b69c2b068fc378daa952ba7f163c4a11628f55a4df523b3ef60405160405180910390a4809150509392505050565b610d038282604051806020016040528060008152506113d2565b5050565b600073ffffffffffffffffffffffffffffffffffffffff168273ffffffffffffffffffffffffffffffffffffffff1603610d7857816040517f5b08ba18000000000000000000000000000000000000000000000000000000008152600401610d6f9190611928565b60405180910390fd5b80600560008573ffffffffffffffffffffffffffffffffffffffff1673ffffffffffffffffffffffffffffffffffffffff16815260200190815260200160002060008473ffffffffffffffffffffffffffffffffffffffff1673ffffffffffffffffffffffffffffffffffffffff16815260200190815260200160002060006101000a81548160ff0219169083151502179055508173ffffffffffffffffffffffffffffffffffffffff168373ffffffffffffffffffffffffffffffffffffffff167f17307eab39ab6107e8899845ad3d59bd9653f200f220920489ca2b5937696c3183604051610e6991906117b7565b60405180910390a3505050565b60008373ffffffffffffffffffffffffffffffffffffffff163b1115611020578273ffffffffffffffffffffffffffffffffffffffff1663150b7a02868685856040518563ffffffff1660e01b8152600401610ed59493929190611eec565b6020604051808303816000875af1925050508015610f1157506040513d601f19601f82011682018060405250810190610f0e9190611f4d565b60015b610f95573d8060008114610f41576040519150601f19603f3d011682016040523d82523d6000602084013e610f46565b606091505b506000815103610f8d57836040517f64a0ae92000000000000000000000000000000000000000000000000000000008152600401610f849190611928565b60405180910390fd5b805181602001fd5b63150b7a0260e01b7bffffffffffffffffffffffffffffffffffffffffffffffffffffffff1916817bffffffffffffffffffffffffffffffffffffffffffffffffffffffff19161461101e57836040517f64a0ae920000000000000000000000000000000000000000000000000000000081526004016110159190611928565b60405180910390fd5b505b5050505050565b606060405180602001604052806000815250905090565b60606000600161104d846113f6565b01905060008167ffffffffffffffff81111561106c5761106b611acf565b5b6040519080825280601f01601f19166020018201604052801561109e5781602001600182028036833780820191505090505b509050600082602001820190505b600115611101578080600190039150507f3031323334353637383961626364656600000000000000000000000000000000600a86061a8153600a85816110f5576110f4611f7a565b5b049450600085036110ac575b819350505050919050565b60006002600083815260200190815260200160002060009054906101000a900473ffffffffffffffffffffffffffffffffffffffff169050919050565b80806111825750600073ffffffffffffffffffffffffffffffffffffffff168273ffffffffffffffffffffffffffffffffffffffff1614155b156112b6576000611192846109f0565b9050600073ffffffffffffffffffffffffffffffffffffffff168373ffffffffffffffffffffffffffffffffffffffff16141580156111fd57508273ffffffffffffffffffffffffffffffffffffffff168173ffffffffffffffffffffffffffffffffffffffff1614155b8015611210575061120e81846108cc565b155b1561125257826040517fa9fbf51f0000000000000000000000000000000000000000000000000000000081526004016112499190611928565b60405180910390fd5b81156112b457838573ffffffffffffffffffffffffffffffffffffffff168273ffffffffffffffffffffffffffffffffffffffff167f8c5be1e5ebec7d5bd14f71427d1e84f3dd0314c0f7b2291e5b200ac8c7c3b92560405160405180910390a45b505b836004600085815260200190815260200160002060006101000a81548173ffffffffffffffffffffffffffffffffffffffff021916908373ffffffffffffffffffffffffffffffffffffffff16021790555050505050565b611319838383611549565b6113cd57600073ffffffffffffffffffffffffffffffffffffffff168373ffffffffffffffffffffffffffffffffffffffff160361138e57806040517f7e2732890000000000000000000000000000000000000000000000000000000081526004016113859190611a3e565b60405180910390fd5b81816040517f177e802f0000000000000000000000000000000000000000000000000000000081526004016113c4929190611fa9565b60405180910390fd5b505050565b6113dc838361160a565b6113f16113e7610ab5565b6000858585610e76565b505050565b600080600090507a184f03e93ff9f4daa797ed6e38ed64bf6a1f0100000000000000008310611454577a184f03e93ff9f4daa797ed6e38ed64bf6a1f010000000000000000838161144a57611449611f7a565b5b0492506040810190505b6d04ee2d6d415b85acef81000000008310611491576d04ee2d6d415b85acef8100000000838161148757611486611f7a565b5b0492506020810190505b662386f26fc1000083106114c057662386f26fc1000083816114b6576114b5611f7a565b5b0492506010810190505b6305f5e10083106114e9576305f5e10083816114df576114de611f7a565b5b0492506008810190505b612710831061150e57612710838161150457611503611f7a565b5b0492506004810190505b60648310611531576064838161152757611526611f7a565b5b0492506002810190505b600a8310611540576001810190505b80915050919050565b60008073ffffffffffffffffffffffffffffffffffffffff168373ffffffffffffffffffffffffffffffffffffffff161415801561160157508273ffffffffffffffffffffffffffffffffffffffff168473ffffffffffffffffffffffffffffffffffffffff1614806115c257506115c184846108cc565b5b8061160057508273ffffffffffffffffffffffffffffffffffffffff166115e883610a78565b73ffffffffffffffffffffffffffffffffffffffff16145b5b90509392505050565b600073ffffffffffffffffffffffffffffffffffffffff168273ffffffffffffffffffffffffffffffffffffffff160361167c5760006040517f64a0ae920000000000000000000000000000000000000000000000000000000081526004016116739190611928565b60405180910390fd5b600061168a83836000610acf565b9050600073ffffffffffffffffffffffffffffffffffffffff168173ffffffffffffffffffffffffffffffffffffffff16146116fe5760006040517f73c6ac6e0000000000000000000000000000000000000000000000000000000081526004016116f59190611928565b60405180910390fd5b505050565b6000604051905090565b600080fd5b600080fd5b60007fffffffff0000000000000000000000000000000000000000000000000000000082169050919050565b61174c81611717565b811461175757600080fd5b50565b60008135905061176981611743565b92915050565b6000602082840312156117855761178461170d565b5b60006117938482850161175a565b91505092915050565b60008115159050919050565b6117b18161179c565b82525050565b60006020820190506117cc60008301846117a8565b92915050565b600081519050919050565b600082825260208201905092915050565b60005b8381101561180c5780820151818401526020810190506117f1565b60008484015250505050565b6000601f19601f8301169050919050565b6000611834826117d2565b61183e81856117dd565b935061184e8185602086016117ee565b61185781611818565b840191505092915050565b6000602082019050818103600083015261187c8184611829565b905092915050565b6000819050919050565b61189781611884565b81146118a257600080fd5b50565b6000813590506118b48161188e565b92915050565b6000602082840312156118d0576118cf61170d565b5b60006118de848285016118a5565b91505092915050565b600073ffffffffffffffffffffffffffffffffffffffff82169050919050565b6000611912826118e7565b9050919050565b61192281611907565b82525050565b600060208201905061193d6000830184611919565b92915050565b61194c81611907565b811461195757600080fd5b50565b60008135905061196981611943565b92915050565b600080604083850312156119865761198561170d565b5b60006119948582860161195a565b92505060206119a5858286016118a5565b9150509250929050565b6000806000606084860312156119c8576119c761170d565b5b60006119d68682870161195a565b93505060206119e78682870161195a565b92505060406119f8868287016118a5565b9150509250925092565b600060208284031215611a1857611a1761170d565b5b6000611a268482850161195a565b91505092915050565b611a3881611884565b82525050565b6000602082019050611a536000830184611a2f565b92915050565b611a628161179c565b8114611a6d57600080fd5b50565b600081359050611a7f81611a59565b92915050565b60008060408385031215611a9c57611a9b61170d565b5b6000611aaa8582860161195a565b9250506020611abb85828601611a70565b9150509250929050565b600080fd5b600080fd5b7f4e487b7100000000000000000000000000000000000000000000000000000000600052604160045260246000fd5b611b0782611818565b810181811067ffffffffffffffff82111715611b2657611b25611acf565b5b80604052505050565b6000611b39611703565b9050611b458282611afe565b919050565b600067ffffffffffffffff821115611b6557611b64611acf565b5b611b6e82611818565b9050602081019050919050565b82818337600083830152505050565b6000611b9d611b9884611b4a565b611b2f565b905082815260208101848484011115611bb957611bb8611aca565b5b611bc4848285611b7b565b509392505050565b600082601f830112611be157611be0611ac5565b5b8135611bf1848260208601611b8a565b91505092915050565b60008060008060808587031215611c1457611c1361170d565b5b6000611c228782880161195a565b9450506020611c338782880161195a565b9350506040611c44878288016118a5565b925050606085013567ffffffffffffffff811115611c6557611c64611712565b5b611c7187828801611bcc565b91505092959194509250565b60008060408385031215611c9457611c9361170d565b5b6000611ca28582860161195a565b9250506020611cb38582860161195a565b9150509250929050565b7f4e487b7100000000000000000000000000000000000000000000000000000000600052602260045260246000fd5b60006002820490506001821680611d0457607f821691505b602082108103611d1757611d16611cbd565b5b50919050565b6000606082019050611d326000830186611919565b611d3f6020830185611a2f565b611d4c6040830184611919565b949350505050565b7f6f6e6c792061646d696e2063616e206d696e7400000000000000000000000000600082015250565b6000611d8a6013836117dd565b9150611d9582611d54565b602082019050919050565b60006020820190508181036000830152611db981611d7d565b9050919050565b7f4e487b7100000000000000000000000000000000000000000000000000000000600052601160045260246000fd5b6000611dfa82611884565b91507fffffffffffffffffffffffffffffffffffffffffffffffffffffffffffffffff8203611e2c57611e2b611dc0565b5b600182019050919050565b600081905092915050565b6000611e4d826117d2565b611e578185611e37565b9350611e678185602086016117ee565b80840191505092915050565b6000611e7f8285611e42565b9150611e8b8284611e42565b91508190509392505050565b600081519050919050565b600082825260208201905092915050565b6000611ebe82611e97565b611ec88185611ea2565b9350611ed88185602086016117ee565b611ee181611818565b840191505092915050565b6000608082019050611f016000830187611919565b611f0e6020830186611919565b611f1b6040830185611a2f565b8181036060830152611f2d8184611eb3565b905095945050505050565b600081519050611f4781611743565b92915050565b600060208284031215611f6357611f6261170d565b5b6000611f7184828501611f38565b91505092915050565b7f4e487b7100000000000000000000000000000000000000000000000000000000600052601260045260246000fd5b6000604082019050611fbe6000830185611919565b611fcb6020830184611a2f565b939250505056fea2646970667358221220b350501ce56ffd7e55368a0fbd39927d4fd4dcd05d00234f405d4af9489fac8c64736f6c634300081c0033",
  "linkReferences": {},
  "deployedLinkReferences": {}
}